:03000000020006F5
:03005F0002000399
:0300030002008375
:10006200AE82AF83EE4F60187DC8C374808DF0639B
:10007200F08095F050031D80F11EBEFF011F80E449
:10008200227F00758001EF20E00FC0071200AAD086
:10009200077480B580F00F80EDC0071200B6D0075C
:1000A2007401B580E10F80DEE58025E0F580900BDC
:1000B200B8020062E580C313F58090232802006233
:06003500E478FFF6D8FD9F
:100013007900E94400601B7A009000C6780175A05E
:1000230000E493F2A308B8000205A0D9F4DAF2754C
:02003300A0FF2C
:10003B007800E84400600A790175A000E4F309D860
:10004B00FC7800E84400600C7900900001E4F0A318
:04005B00D8FCD9FAFA
:0D0006007581071200C2E58260030200034D
:0400C2007582002221
:00000001FF
