:03000000020006F5
:03005F0002000399
:0300030002008375
:10006200AE82AF83EE4F60187DC8C374808DF0639B
:10007200F08095F050031D80F11EBEFF011F80E449
:10008200227F00758001C0071200C9D007EF20E06F
:100092000FC0071200B1D0077480B580E90F80E667
:1000A200C0071200BDD0077401B580DA0F80D7E512
:1000B2008025E0F58090012C020062E580C313F5F3
:1000C200809003840200627E007F00D29190000A39
:1000D200C007C006120062C29190000A120062D0EC
:1000E20006D0070EBE00010FC3EE9437EF64809472
:0400F2008040D82250
:06003500E478FFF6D8FD9F
:100013007900E94400601B7A009000FA780175A02A
:1000230000E493F2A308B8000205A0D9F4DAF2754C
:02003300A0FF2C
:10003B007800E84400600A790175A000E4F309D860
:10004B00FC7800E84400600C7900900001E4F0A318
:04005B00D8FCD9FAFA
:0D0006007581071200F6E582600302000319
:0400F60075820022ED
:00000001FF
