:03000000020006F5
:03005F0002000399
:0300030002006296
:10006200D2919007D0120072C290900FA00200723B
:10007200AE82AF83EE4F601E7CC87D001CBCFF01C8
:100082001DC3E49C74808DF063F08095F040ED1EFA
:07009200BEFF011F80DE220A
:06003500E478FFF6D8FD9F
:100013007900E94400601B7A0090009D780175A087
:1000230000E493F2A308B8000205A0D9F4DAF2754C
:02003300A0FF2C
:10003B007800E84400600A790175A000E4F309D860
:10004B00FC7800E84400600C7900900001E4F0A318
:04005B00D8FCD9FAFA
:0D000600758107120099E582600302000376
:04009900758200224A
:00000001FF
