:03000000020006F5
:03005F0002000399
:0300030002006296
:100062007F00EF2408F9EF9000AF93FEF70FBF086F
:100072000040EF12007A80FB7F00EF9000A793F51B
:1000820090EF2408F987807D0A7E008D038E041D7F
:10009200BDFF011EEB4C70F3F5800FBF080040DA84
:0100A200223B
:1000A700FEFDFBF7EFDFBF7F3F065B4F666D7D070A
:0900B7007F6F777C395E797100DE
:06003500E478FFF6D8FD9F
:100013007900E94400601B7A009000C0780175A064
:1000230000E493F2A308B8000205A0D9F4DAF2754C
:02003300A0FF2C
:10003B007800E84400600A790175A000E4F309D860
:10004B00FC7800E84400600C7900900001E4F0A318
:04005B00D8FCD9FAFA
:0D00060075810F1200A3E582600302000364
:0400A3007582002240
:00000001FF
