:03000000020006F5
:03005F0002000399
:0300030002006296
:200062007F00EF24F850030200C8EF240A83F582EF240C83F583E4738A929AA2AAB2BAC21F
:200082000000000000000000C2A2C2A3C2A48036D2A2C2A3C2A4802EC2A2D2A3C2A48026A7
:2000A200D2A2D2A3C2A4801EC2A2C2A3D2A48016D2A2C2A3D2A4800EC2A2D2A3D2A48006CA
:2000C200D2A2D2A3D2A4900032C0071200E0D0070FBF080280030200647F00020064AE8297
:1E00E200AF83EE4F60177D267C82EC14FBFC70FAED14FCFD70F21EBEFF011F80E5223A
:06003500E478FFF6D8FD9F
:200013007900E94400601B7A00900104780175A000E493F2A308B8000205A0D9F4DAF2758E
:02003300A0FF2C
:20003B007800E84400600A790175A000E4F309D8FC7800E84400600C7900900001E4F0A3C3
:04005B00D8FCD9FAFA
:0D000600758107120100E58260030200030E
:0401000075820022E2
:00000001FF
