:03000000020006F5
:03005F0002000399
:0300030002006296
:10006200C29320900F12007AC293901388120099C3
:10007200D29080EED29380EA7F00BF63005017D205
:10008200919001F4C007120099C2919001F41200FC
:1000920099D0070F80E422AE82AF83EE4F60187DC5
:1000A200C8C374808DF063F08095F050031D80F119
:0800B2001EBEFF011F80E422C5
:06003500E478FFF6D8FD9F
:100013007900E94400601B7A009000BE780175A066
:1000230000E493F2A308B8000205A0D9F4DAF2754C
:02003300A0FF2C
:10003B007800E84400600A790175A000E4F309D860
:10004B00FC7800E84400600C7900900001E4F0A318
:04005B00D8FCD9FAFA
:0D0006007581071200BAE582600302000355
:0400BA007582002229
:00000001FF
