:03000000020006F5
:03005F0002000399
:0300030002006296
:100062007F00D291900005C00712009DC2919000BE
:100072000512009DD007758001EF20E00FC0071226
:1000820000B5D0077480B580D90F80D6C0071200A2
:10009200C1D0077401B580CA0F80C7AE82AF83EEAC
:1000A2004F600F7DC8ED14FCFD70FA1EBEFF011FEC
:1000B20080ED22E58025E0F58090001E02009DE59E
:0B00C20080C313F58090005A02009DDF
:06003500E478FFF6D8FD9F
:100013007900E94400601B7A009000D1780175A053
:1000230000E493F2A308B8000205A0D9F4DAF2754C
:02003300A0FF2C
:10003B007800E84400600A790175A000E4F309D860
:10004B00FC7800E84400600C7900900001E4F0A318
:04005B00D8FCD9FAFA
:0D0006007581071200CDE582600302000342
:0400CD007582002216
:00000001FF
