:060000000200090200E20B
:0300620002000693
:0300060002006590
:100065001200D9E512C4540FFF8F14740F5512FEF8
:100075008E15750800EF249EFFE43402FD8F828DF6
:1000850083E493FC8C09EE249EFEE43402FC8E820C
:100095008C83E493FB8B0A750B76750C008F828D30
:1000A50083E493FF8F0D8E828C83E493FE8E0E7511
:1000B5000F7612021180ACAE82AF838E048F051EBF
:1000C500BEFF011FEC4D600B7D0D8D041CECFD701A
:1000D500F980E822D288D2A8D2AFD2B222C020C0FD
:1000E500E0C0F0C082C083C007C006C005C004C020
:1000F50003C002C001C000C0D075D00075160090C5
:1001050000461200BC30B2030201F47EE87F0320F2
:10011500B219EE4F6015900001C007C0061200BC71
:10012500D006D0071EBEFF011F80E420B2030201E6
:10013500DE7EF47F0130B219EE4F6015900001C0EC
:1001450007C0061200BCD006D0071EBEFF011F80E7
:10015500E47F007E007C3C7D0020B221EC4D601DDB
:10016500900001C007C006C005C0041200BCD00441
:10017500D005D006D0071CBCFF011D80DC7CF47DBA
:100185000130B22BEC4D6027900001C007C006C0BE
:1001950005C0041200BCD004D005D006D007051652
:1001A5001CBCFF011DE51624E150D6D2A88040EF06
:1001B5002410F9E7C313FDF774F8251650068705D3
:1001C50074804DF77516000EBE0800500302015AE3
:1001D5000FBF04005003020158AE137F00EEF4FE7A
:1001E500EFF4FFAC127D00ECB50604EDB50700D0C9
:1001F500D0D000D001D002D003D004D005D006D095
:1002050007D083D082D0F0D0E0D020327F00EF2419
:10021500F85003020277EF240A83F582EF240C835A
:10022500F583E4733941495159616971020202024A
:1002350002020202C2A2C2A3C2A48036D2A2C2A3F3
:10024500C2A4802EC2A2D2A3C2A48026D2A2D2A3C7
:10025500C2A4801EC2A2C2A3D2A48016D2A2C2A3E7
:10026500D2A4800EC2A2D2A3D2A48006D2A2D2A3C7
:10027500D2A4EF2408F987807D0A7E008D038E04C1
:100285001DBDFF011EEB4C70F3F5800FBF0800503C
:05029500030202132228
:10029E003F065B4F666D7D077F6F777C395E7971A8
:0102AE00004F
:06003800E478FFF6D8FD9C
:100016007900E94400601B7A009002AF780175A070
:1000260000E493F2A308B8000205A0D9F4DAF27549
:02003600A0FF29
:10003E007800E84400600A790175A000E4F309D85D
:10004E00FC7800E84400600C7900900001E4F0A315
:04005E00D8FCD9FAF7
:0D00090075812012029AE582600302000654
:04029A007582002247
:00000001FF
