:03000000020006F5
:03005F0002000399
:0300030002009563
:10006200AE82AF837C007D00C3EE9CEF64808DF096
:1000720063F08095F0401B7A797B00EA24FFF8EB6D
:1000820034FFF988028903E84970F00CBC00D90DED
:1000920080D622759000D290C291D292D2939000D3
:1000A20002120062D290D291D292C29390000212B6
:1000B2000062C290D291D292D29390000212006258
:1000C200D290D291C292D29390000212006280C664
:06003500E478FFF6D8FD9F
:100013007900E94400601B7A009000D6780175A04E
:1000230000E493F2A308B8000205A0D9F4DAF2754C
:02003300A0FF2C
:10003B007800E84400600A790175A000E4F309D860
:10004B00FC7800E84400600C7900900001E4F0A318
:04005B00D8FCD9FAFA
:0D0006007581071200D2E58260030200033D
:0400D2007582002211
:00000001FF
